:020000042022B8
:10000000EF000055930530007390057C1707000042
:100010001307472973105730F3275030E31EF7FEBC
:100020001306800073300630731040307310403474
:10003000732540F163060500735030307350203053
:100040007310003473102034731010347310003A9E
:100050007310203A93000000130100009301000088
:10006000130200009302000013030000930300003A
:100070001304000093040000130500009305000022
:10008000130600009306000013070000930700000A
:1000900013080000930800001309000093090000F2
:1000A000130A0000930A0000130B0000930B0000DA
:1000B000130C0000930C0000130D0000930D0000C2
:1000C000130E0000930E0000130F0000930F0000AA
:1000D000B7E2010073A00230732540F1630205000E
:1000E000F322103063C402006FF09FFF9701DEE738
:1000F00093814171732540F1930500006302B502BD
:10010000930510006308B50293052000630EB50245
:10011000930530006304B50493054000630AB504F9
:100120001737DEE7130707501751DEE71301814F3A
:100130006F0000051757DEE71307C74E1771DEE79C
:100140001301414E6F00C0031777DEE71307874D99
:100150001791DEE71301014D6F0080021797DEE76C
:100160001307474C17B1DEE71301C14B6F00400185
:1001700017B7DEE71307074B17D1DEE71301814AF4
:10018000930701002330070013078700E34CF7FEB5
:10019000130101FC13020100732540F193050000D7
:1001A000631EB5061717DEE71307C7479737DEE765
:1001B000938747472330070013078700E34CF7FE78
:1001C000130610006306C000EF000033EF0000319B
:1001D000370770011B07070223000700371770015C
:1001E0001B07070223000700372770011B070702C0
:1001F00023000700373770011B07070223000700A1
:10020000374770011B070702230007006F00206AB1
:1002100013000000130000006FF09FFF1306800022
:100220007330063073104030731040341306800072
:1002300073104630B74634129B8616329755DEE768
:100240009385453A03B60500E39EC6FEB7553412C2
:100250009B8585672330B2000F100000730050109B
:100260007326403413768600E30A06FE13068000E8
:10027000733006307310403073104034B7250200DD
:100280009B8555D99395E500938515322330B200AF
:100290006F00D00313000000130000006FF09FFFF9
:1002A000130101F0233821002338A104233CB104B9
:1002B00023341100233C3100233041022334510206
:1002C00023386102233C71022330810423349104DA
:1002D0002330C1062334D1062338E106233CF1063E
:1002E000233001092334110923382109233C310922
:1002F0002330410B2334510B2338610B233C710B0A
:100300002330810D2334910D2338A10D233CB10DF1
:100310002330C10F2334D10F2338E10F233CF10FD9
:1003200013050100F325303473261034EF80C00725
:1003300083308100833181010332010283328102E3
:1003400003330103833381030334010483348104C1
:1003500003350105833581050336010683368106A1
:100360000337010783378107033801088338810881
:100370000339010983398109033A010A833A810A61
:10038000033B010B833B810B033C010C833C810C41
:10039000033D010D833D810D033E010E833E810E21
:1003A000033F010F833F810F03310101130101104E
:1003B000730020301306800073104630130680004F
:1003C000732006300F100000678000006308B5003E
:1003D00023300500130585006FF05FFF6780000084
:1003E000630AB5002330C500130585001306860097
:1003F0006FF01FFF67800000638EA500638CC5004F
:100400008336050023B0D50013058500938585004C
:100410006FF0DFFE67800000130305009383050083
:10042000630A0600230073001306F6FF130313008C
:10043000E31A06FE6780000013030500630E060042
:1004400083830500230073001306F6FF13031300D4
:1004500093851500E31606FE678000001303050070
:10046000630E060083A30500232073001306C6FF56
:100470001303430093854500E31606FE67800000E2
:1004800013030500630E060083B3050023307300D9
:10049000130686FF1303830093858500E31606FE8B
:1004A000678000009717DEE09387C77517D70000B5
:1004B000130747C16382E7029716DEE09386067C46
:1004C000638CD7000326070023A0C700938747004B
:1004D00013074700E3E8D7FE678000001706000017
:1004E000130646B2370700083376E60063100602AB
:1004F000B70720086F00C00037070001B7270001C9
:100500002330070013078700E34CF7FE67800000E5
:10051000B70701029B8787161307050083A307000F
:1005200023207700B70701029B87871413870500F4
:1005300083A3070023207700B70701029B8787105A
:100540001307060083A307002320770067800000BD
:100550009387000013000000EF004002130000002A
:10056000130000001300000013000000130000003F
:100570001300000093800700678000001300000054
:10058000130000001300000013000000130000001F
:100590001300000067800000000000000000000061
:1005A00023200500828085422F235508E31E03FE89
:1005B00082802F20050882800000797122F40018C3
:1005C000AA87232EF4FCB737000813870762B717F2
:1005D00000089387076263E3E700029083B7017224
:1005E00099E7371700081307076223B0E17283B752
:1005F00001722334F4FE03B701728327C4FD3E97D2
:1006000023B0E17203B70172B7370008938707621E
:1006100063F3E7000290833784FE3E8522744561D0
:100620008280011122EC00102334A4FE370700025F
:10063000833784FE8A07BA97054798C30F00F00FE7
:100640000100626405618280011122EC0010F32731
:1006500040F12334F4FE833784FE2330F4FE370761
:10066000000CB7C722209386874D833704FE8E0780
:10067000B6979C6393870720B207BA97DC4381271C
:100680003E85626405618280797122F40018AA8730
:10069000232EF4FCF32740F12334F4FE833784FE49
:1006A0002330F4FE8327C4FD1B8707009307A00BAC
:1006B00063F3E70002903707000CB7C72220938648
:1006C000874D833704FE8E07B6979C639387072078
:1006D000B207BA970327C4FDD8C30100227445614D
:1006E0008280011106EC22E80010EFF0FFF5AA87E6
:1006F00081272326F4FE25A88327C4FE81273E8573
:10070000EFF09FF8BD472324F4FE01A8832784FE61
:100710008127FD3781272324F4FE832784FE812748
:10072000F5F7EFF07FF2AA8781272326F4FE8327CF
:10073000C4FE8127F1F30100E2604264056182801A
:10074000011106EC22E80010232604FE31A8370729
:10075000000C8367C4FE8A07BA9723A20700832789
:10076000C4FE85272326F4FE8327C4FE1B870700CB
:100770009307A00BE3FDE7FC232604FE05A0370743
:10078000000C8367C4FE93870720B207BA971D4702
:1007900098C38327C4FE85272326F4FE8327C4FE3F
:1007A0001B870700A147E3FCE7FC232604FED5A036
:1007B0003707000C8366C4FE856793870780B6976A
:1007C0008A07BA9723A007003707000C8366C4FE88
:1007D000856793870782B6978A07BA9723A0070091
:1007E0003707000C8366C4FE856793870784B69736
:1007F0008A07BA9723A007003707000C8366C4FE58
:10080000856793870786B6978A07BA9723A007005C
:100810003707000C8366C4FE856793870788B69701
:100820008A07BA9723A007003707000C8366C4FE27
:1008300085679387078AB6978A07BA9723A0070028
:100840003707000C8366C4FE85679387078CB697CD
:100850008A07BA9723A007003707000C8366C4FEF7
:1008600085679387078EB6978A07BA9723A00700F4
:100870003707000C8366C4FE856793870790B69799
:100880008A07BA9723A007008327C4FE852723265B
:10089000F4FE8327C4FE1B8707009547E3FAE7F0C1
:1008A000EFF03FE40100E26042640561828039714B
:1008B00006FC22F88000F32740F12334F4FC833750
:1008C00084FC2330F4FC233404FE833704FC639857
:1008D000071EEF00002FEF708034EF000036EF00AE
:1008E000A03DEF0000470145EF002048EF50004CCD
:1008F000B7D722201386070CB7072220938507005D
:10090000B707222013850700EFF01FAFB757000885
:1009100093870762233CF4FC833784FD938707FCAD
:100920002334F4FE833784FE37473412130717321B
:1009300098C3232A04FC8547A303F4FEA9A28327B6
:1009400044FD1B87070089476300F70C832744FD9C
:100950001B8707008D476304F70C832744FD1B8723
:10096000070085476303F708834774FE8127BE8627
:100970000947638BE602BE8609476347D7003E8777
:100980008547630CF700B1A0BE860D476385E6027C
:100990003E8791476308F7022DA8B7770008938731
:1009A0000762233CF4FC35A0B797000893870762E1
:1009B000233CF4FC39A8B7B7000893870762233CAF
:1009C000F4FC01A8B7D7000893870762233CF4FC26
:1009D0000100833784FD938707FC2334F4FE8547A9
:1009E000232AF4FC232804FC79A8833784FE9C4343
:1009F00081273E87B7573412938787676315F708B7
:100A00008947232AF4FC41A0834774FE3E85EFF01A
:100A10005FC18D47232AF4FC232804FCADA0833753
:100A200084FE9C4381273E87B747658793871732AB
:100A3000631CF700232A04FC834774FE8527A30365
:100A4000F4FE232804FC3DA8832704FD85272328E2
:100A5000F4FC832704FD1B870700C14763F4E7020A
:100A6000833784FE9C4381273E87B7573412938790
:100A700087676319F700834774FE3E85EFF07FBAFE
:100A8000232804FC0100834774FE13F7F70F9147F6
:100A9000E3F7E7EAB757000893870762233CF4FCC3
:100AA000833784FD938707FC2334F4FE833784FE69
:100AB000375755551307575598C3EF00200183B793
:100AC00081721387170023B4E172D5BF5D7186E48C
:100AD000A2E08008B7570008938707622334F4FE2A
:100AE000B7770008938707622330F4FEB7970008B2
:100AF00093870762233CF4FCB7B70008938707622B
:100B00002338F4FCB7D70008938707622334F4FC3A
:100B1000F32740F12330F4FC833704FC233CF4FA40
:100B2000033784FB914763E6E708833784FB139719
:100B30002700B7B7222093870770BA979C43828714
:100B4000833784FE3301F0002338F4FAEF906030ED
:100B500095A00545EF006021833704FE3301F000C6
:100B60002338F4FAEF803073B1A00945EF00E01F9D
:100B7000833784FD3301F0002338F4FAEF80105AF4
:100B800015A80D45EF00601E833704FD3301F0000A
:100B90002338F4FAEF80F04031A81145EF00E01C53
:100BA000833784FC3301F0002338F4FAEF80D02738
:100BB00011A0010083B701731387170023B8E172F6
:100BC000D5BF397122FC8000B73700209387071208
:100BD0002330F4FEB7B72220938787719063946720
:100BE000986B9C6F2330C4FC2334D4FC2338E4FC82
:100BF000233CF4FCA30704FE35A08347F4FE8127C1
:100C00000347F4FE0A07833604FE36978A079306E5
:100C100004FFB69783A707FD1CC38347F4FE85270F
:100C2000A307F4FE8347F4FE13F7F70F9D47E3F69F
:100C3000E7FC0100627421618280411106E422E038
:100C4000000813860188B707000893850700B7D707
:100C5000222013850714EFF02FFA13860172938573
:100C60000188B7D722201385071CEFF0EFF8B707EC
:100C7000000A13860700B707000A93850700B7D755
:100C800022201385070CEFF02FF79385017B138546
:100C90000172EFF0AFF3B717000893850762138571
:100CA000017BEFF0AFF2EF70B025EFF07FA901000C
:100CB000A260026441018280011122EC0010A307AE
:100CC00004FEA5A8370770018347F4FE8127B20709
:100CD000BA9723B80700370770018347F4FE8127CE
:100CE000B207BA9723BC0700370770018347F4FEA9
:100CF0008127B207BA9723B40702370770018347E9
:100D0000F4FE8127B207BA9723B0070037077001B6
:100D10008347F4FE8127B207BA9723B0070237074B
:100D200070018347F4FE8127B207BA9723B4070006
:100D30008347F4FE8527A307F4FE8347F4FE13F7E9
:100D4000F70F9147E3F0E7F881473E85626405615C
:100D50008280411106E422E00008EF70C01681474E
:100D60003E85A260026441018280011106EC22E806
:100D70000010AA87A307F4FE8347F4FE3E85EF70B8
:100D8000207081473E85E2604264056182804111A6
:100D900022E40008B76700209C431B870700B76761
:100DA000002013671700012798C3B76700209C43F2
:100DB000812793F7F70F858B93F7F70F3E85226412
:100DC00041018280011122EC0010AA87A307F4FEE2
:100DD000AE872307F4FEB287A306F4FEB687230688
:100DE000F4FEBA87A305F4FEB767002023A207002C
:100DF0008347F4FE13F7F70F9D4763F4E700854739
:100E000009AA8347E4FE13F7F70F854763F4E70069
:100E1000894701A28347D4FE13F7F70F854763F490
:100E2000E7008D47FDA08347C4FE13F7F70F9D47EA
:100E300063F4E7009147F1A8B7670020DC439B8685
:100E400007008347F4FE81279D8B1B870700B76748
:100E50000020558F0127D8C38347E4FE93F7F70F8F
:100E60009DC3B7670020DC439B8607008347E4FEF1
:100E700081279B97470081271B870700B7670020C2
:100E8000558F0127D8C38347D4FE93F7F70F9DC32F
:100E9000B7670020DC439B8607008347D4FE812789
:100EA0009B97570081271B870700B7670020558F46
:100EB0000127D8C38347C4FE93F7F70F9DC3B767D5
:100EC0000020DC439B8607008347C4FE81279B9755
:100ED000870081271B870700B7670020558F0127F0
:100EE000D8C38347B4FE93F7F70F9DC3B7670020BD
:100EF000DC439B8607008347B4FE81279B97B7009E
:100F000081271B870700B7670020558F0127D8C3AB
:100F100081473E85626405618280011122EC0010E8
:100F2000AA872326F4FEB76700208326C4FE37076E
:100F300000017D17758F012798C701006264056164
:100F40008280797122F40018233CA4FC232604FE3D
:100F5000834784FD81278D8B1B8707008327C4FE71
:100F6000D98F2326F4FE834794FD81279B97270082
:100F70008127B18B1B8707008327C4FED98F2326C7
:100F8000F4FE8347A4FD81279B974700812793F7B1
:100F900007031B8707008327C4FED98F2326F4FE8F
:100FA0008347B4FD81279B976700812793F7F70F4D
:100FB0001B8707008327C4FED98F2326F4FE8347AF
:100FC000C4FD81279B978700812793F707301B87F4
:100FD00007008327C4FED98F2326F4FE8347D4FD60
:100FE00081279B97A70081273E878567938707C046
:100FF000F98F1B8707008327C4FED98F2326F4FEB1
:101000008347E4FD81279B97C70081273E878D6733
:10101000F98F1B8707008327C4FED98F2326F4FE90
:101020008347F4FD81279B97E70081273E87C167AF
:10103000FD17F98F1B8707008327C4FED98F23264E
:10104000F4FEB76700200327C4FED8C7010022744E
:1010500045618280011122EC0010AA872330B4FE82
:101060002326F4FE833704FE99E39947D9A88337F2
:1010700004FE23A00700B76700209C438127858BCF
:10108000812799C3954775A88327C4FE1B8707004E
:101090009D4763E5E70A8367C4FE13972700B7B748
:1010A000222093878773BA979C438287B767002073
:1010B0009C4B1B870700833704FE98C351A0B7677A
:1010C0000020DC4B1B870700833704FE98C38DA8E4
:1010D000B76700209C4F1B870700833704FE98C327
:1010E00085A0B7670020DC4F1B870700833704FE0D
:1010F00098C3B9A0B76700209C531B8707008337AC
:1011000004FE98C335A8B7670020DC531B8707008F
:10111000833704FE98C32DA0B76700209C571B8718
:101120000700833704FE98C321A8B7670020DC5767
:101130001B870700833704FE98C319A0AD4711A091
:1011400081473E85626405618280011106EC22E8D8
:101150000010AA872326F4FE8327C4FE812799E383
:1011600023AE017203A7C173BA8685476383F60273
:1011700089476308F700094723AEE17223A0017491
:1011800011A8EF000002AA871B87070023A0E174C3
:1011900011A0010083A701743E85E26042640561ED
:1011A0008280197186FCA2F80001232604FE89477B
:1011B000232AF4FA83A74174BE861307700363746D
:1011C000D7006F10403513972700B7C722209387A9
:1011D00087ACBA979C43828737E7CF073D0723A4A4
:1011E000E17437E704001307375623A6E17423A8F8
:1011F000017423AC017223AA01741306000881450F
:10120000B7170008138587FDEFF00FA123AC017419
:1012100003B78186B7E7CF071386F700B7B7222059
:10122000938587753A85EF30D045114723A2E17445
:101230006F10803003B7818683A7C1753E86B7B72C
:101240002220938507783A85EF30B043054723A2E3
:10125000E1746F10602E03B7818683A7C1753E8647
:10126000B7B72220938507793A85EF30904105473B
:1012700023A2E1746F10402C03B7818683A7C17548
:101280003E86B7B722209385077A3A85EF30703FC4
:10129000054723A2E1746F10202A03B7818683A734
:1012A000C1753E86B7B722209385077B3A85EF301C
:1012B000503D054723A2E1746F10002803B78186D3
:1012C00083A7C1753E86B7B722209385077C3A85F0
:1012D000EF30303B054723A2E1746F10E02503B7E0
:1012E000818683A7C1753E86B7B722209385077D87
:1012F0003A85EF301039054723A2E1746F10C023FF
:1013000003B7818683A7C1753E86B7B72220938530
:10131000077E3A85EF30F036054723A2E1746F105F
:10132000A02103B7818683A7C1753E86B7B7222067
:101330009385877F3A85EF30D034054723A2E17447
:101340006F10801F03B7818683A7C1753E86B7C71C
:101350002220938507813A85EF30B032054723A2DA
:10136000E1746F10601D03B7818683A7C1753E8647
:10137000B7C72220938587823A85EF3090300547A2
:1013800023A2E1746F10401B03B7818683A7C17548
:101390003E86B7C72220938507843A85EF30702EAA
:1013A000054723A2E1746F10201903B7818683A734
:1013B000C1753E86B7C72220938587853A85EF3071
:1013C000502C054723A2E1746F10001703B78186E4
:1013D00083A7C1753E86B7C72220938507873A85C4
:1013E000EF30302A054723A2E1746F10E01483A781
:1013F000817585271B87070023ACE1747D57238007
:10140000E17603B7818683A741743E86B7C7222061
:10141000938507893A85EF30D026094723A2E174E6
:101420006F10801183A7817585271B87070023AC68
:10143000E17483C701763E879307C00F6305F70009
:1014400079572380E17603B7818683A741743E866E
:10145000B7C722209385878A3A85EF30902203B759
:10146000818683A781753E86B7C722209385878CA6
:101470003A85EF301021094723A2E1746F10C00BA9
:1014800023AC017223AA0174130600088145B71723
:101490000008138587FDEFE03FF8B707000803B7A2
:1014A0000701C167BA9723A80704B707000803B765
:1014B00007019167BA9723AC0702B707000803B783
:1014C00087008567BA9723A80780114723A2E17494
:1014D0006F108006832744FB1B8707009D47631E10
:1014E000F700EF1020258327C4FE93E7170023267B
:1014F000F4FE8327C4FE6F10600423A8017415470F
:1015000023A2E1746F10400303B7818683A7C174DF
:101510003E86B7C722209385078E3A85EF30701636
:1015200083A7C1743E85EF102004194723A2E174FC
:101530006F108000B707000883B78700054723A016
:10154000E730B707000883B78700054723A0E738CF
:10155000B707000883B78700054723A0E7401D476A
:1015600023A2E1746F00507D832744FB3E85EF107A
:101570000006214723A2E1746F00107CB707023EEA
:10158000054798C3254723A2E1746F00F07AEF5016
:10159000001103B78186B707000883B7870083A7C8
:1015A000C720812793F7F70781273E86B7C72220F8
:1015B0009385078F3A85EF30D00C03B78186B70744
:1015C000000883B7870083A7C72081279BD77700B0
:1015D000812793F7F70781273E86B7C72220938597
:1015E00007903A85EF30F00903B7818683A7C1756C
:1015F0003E86B7C72220938507913A85EF30700861
:1016000003B7818683A741763E86B7C7222093859C
:1016100087923A85EF30F00603B7818683A78176FB
:101620003E86B7C72220938587943A85EF307005B0
:1016300003B7818683A7C1763E86B7C722209385EC
:1016400007963A85EF30F00303B7818683A70177C9
:101650003E86B7C72220938587973A85EF30700280
:10166000294723A2E1746F00306D0145EF40F02758
:1016700041677D1723AAE176314723A2E1746F0009
:10168000B06BEF40F039AA8791E72D4723A2E174B0
:101690006F00B06883A74177FD371B87070023AA37
:1016A000E17683A7417799C36F0030671307500332
:1016B00023A2E1746F007066EF30A049B7070008FD
:1016C00083B7070083A747081B870700B7070008F1
:1016D00083B70700BA8637078000558F012723A2FA
:1016E000E708B707000883B7070083A787081B87A9
:1016F0000700B707000883B70700BA86370780FFDF
:101700007D17758F012723A4E708354723A2E174CD
:101710006F009062EF10D033394723A2E1746F005D
:10172000B061B707000803B787008567BA97094714
:1017300023ACE780B707000803B707019167BA97A2
:1017400023A00700B707000803B707019167BA97FE
:10175000054798C33D4723A2E1746F00F05DB707CA
:10176000000803B787008567BA97114723A2E78A65
:10177000B707000803B787008567BA97094723AC06
:10178000E786B707000803B787008567BA9713078E
:10179000C00723A2E78AB707000803B78700856759
:1017A000BA971307800723A2E78AB707000803B791
:1017B00087008567BA971307800723A2E78AB707D0
:1017C000000803B787008567BA971307C00723A2ED
:1017D000E78AB707000803B787008567BA971147FC
:1017E00023A2E78AB707000803B787008567BA977F
:1017F0001307400623A2E78AB707000803B787004C
:101800008567BA971307600623A2E78A232404FE9C
:1018100015A8B707000803B787008567BA971307AD
:10182000700623A2E78AB707000803B78700856719
:10183000BA971307600623A2E78A832784FE8527C9
:101840002324F4FE832784FE1B8707008547E3F2E9
:10185000E7FCB707000803B787008567BA97130747
:10186000400623A2E78AB707000803B78700856709
:10187000BA97114723A2E78AB707000803B7870082
:101880008567BA977D4723AEE788B707000803B797
:1018900087008567BA977D5723A8E788B7070008B0
:1018A00003B787008567BA9723A80788B70700089A
:1018B00003B787008567BA9723AE0788B707000884
:1018C00003B787008567BA977D5723A8E788B707CE
:1018D000000803B787008567BA9723A80788B7076A
:1018E000000803B787008567BA971307F00323A0A2
:1018F000E78AB707000803B787008567BA9723A070
:10190000078AB707000803B787008567BA971947A2
:1019100023A6E78CB707000803B787008567BA9747
:101920007D5723A6E788B707000803B787008567B8
:10193000BA973D4723A8E788B707000803B7870091
:101940008567BA9723A60788B707000803B78700FB
:101950008567BA9723A80788B707000803B78700E9
:101960008567BA97114723A6E78CB707000803B726
:1019700087008567BA977D5723A6E788B7070008D1
:1019800003B787008567BA973D4723A8E788B7075D
:10199000000803B787008567BA9723A60788B707AB
:1019A000000803B787008567BA9723A80788B70799
:1019B000000803B787008567BA9723A6078CB70787
:1019C000000803B787008567BA971307F00323A0C1
:1019D000E78AB707000803B787008567BA9723A08F
:1019E000078AB707000803B787008567BA9723AC53
:1019F0000786414723A2E1746F00103403B7818644
:101A000083A781743E86B7C72220938507993A85BC
:101A1000EF302047B707000883B6870003A781741B
:101A20008567B69723A8E78C41677D1723AAE176DF
:101A3000832744FB3E85EF302019AA873E878547E0
:101A40006317F700454723A2E1746F00F02E832748
:101A500044FB812791CBB707000803B78700856750
:101A6000BA9723AC078009A8B707000803B7070196
:101A70009167BA97054798C3494723A2E1746F005D
:101A8000B02B232204FE8D472320F4FE232804FAE2
:101A9000232004F8232204F8232404F8232604F83E
:101AA000232804F8232A04F8232C04F8232E04F80E
:101AB000232604FA232E04FC91AA8327C4FD9B97B6
:101AC0008700812793F707702324F4FA8327C4FD46
:101AD000892781279B97B70081273E879167938746
:101AE0000780F98F2322F4FA032784FA832744FA24
:101AF000D98F1B87070083B70183BA8611670D074B
:101B0000558F012798D3032784FA832744FAD98F66
:101B10001B87070083B7018313673700012798D31A
:101B2000032784FA832744FAD98F1B87070083B7DA
:101B30000183BA8611670D07558F012798D3B70720
:101B4000000803B787008567BA9783A7C78A8127EC
:101B50009BD7C70081278D8B2328F4FA832704FEA7
:101B600093C7F7FF1B870700832704FBF98F8127A3
:101B70008DCB8327C4FD9D8B2326F4FA8367C4FA9B
:101B80008A07130704FFBA9783A707F985271B87DE
:101B900007008367C4FA8A07930604FFB69723A851
:101BA000E7F8832704FB2320F4FE232C04FC232ADC
:101BB00004FC89A0836744FD8A07130704FFBA97D2
:101BC00003A707F9832784FD812763F0E7028327B2
:101BD00044FD2322F4FE836744FD8A07130704FFB4
:101BE000BA9783A707F9232CF4FC832744FD8527A4
:101BF000232AF4FC832744FD1B8707009D47E3FB52
:101C0000E7FA8327C4FD8527232EF4FC8327C4FD30
:101C10001B8707009307F031E3F1E7EA832744FECF
:101C2000992781279B978700812793F707702324A3
:101C3000F4FA832744FE9B97B70081273E8791677C
:101C400093870780F98F2322F4FA032784FA8327E6
:101C500044FAD98F1B87070083B70183BA861167BF
:101C60000D07558F012798D3032784FA832744FA59
:101C7000D98F1B87070083B70183136737000127BC
:101C800098D3032784FA832744FAD98F1B87070048
:101C900083B70183BA8611670D07558F012798D343
:101CA000494723A2E17483A74177FD371B870700CB
:101CB00023AAE17683A74177E3930706130710036E
:101CC00023A2E1746F00B005B707000803B78700CF
:101CD0008567BA9723A60780832744FB812799CF7E
:101CE000832744FB1B87070091476309F70083277D
:101CF00044FB1B87070089476318F700B7070008F4
:101D000083B7870023A0076AB707000803B78700D7
:101D10008567BA9723AC0780B707000803B70701A8
:101D2000C167BA9723A80704B707000803B70701DC
:101D3000C167BA970547B8CBB707000803B70701D3
:101D40009167BA9723AC0702B707000803B70701EA
:101D50009167BA97054798DF41677D1723AAE17617
:101D60004D4723A2E1746F00207DB707000803B739
:101D70000701C167BA97DC5B8127858B81273E8786
:101D800085476315F70403B7818683B70183DC4B6E
:101D900081273E86B7C722209385879A3A85EF3000
:101DA000400E03B7818683B701839C4B81273E8613
:101DB000B7C722209385879A3A85EF30800C514728
:101DC00023A2E17441677D1723AAE17683A74177B7
:101DD000FD371B87070023AAE17683A7417763922B
:101DE00007741307400323A2E1746F008073B707E1
:101DF000000803B787008567BA9783A747818127C3
:101E0000858B812781CB41677D1723AAE1765547D2
:101E100023A2E17483A74177FD371B87070023AA1C
:101E2000E17683A74177639007701307000323A22D
:101E3000E1746F00406FB707000803B7870085673C
:101E4000BA9783A747818127898B812789CB370759
:101E500010007D1723AAE176594723A2E17483A7D6
:101E60004177FD371B87070023AAE17683A74177D7
:101E7000639D076A1307F00223A2E1746F00E06A12
:101E8000B707000803B787008567BA9783A747811C
:101E90008127918B812789CB370710007D1723AAD3
:101EA000E1765D4723A2E17483A74177FD371B8765
:101EB000070023AAE17683A74177639A0766130791
:101EC000E00223A2E174A5A5B707000803B78700C5
:101ED0008567BA9783A747818127A18B812781CB0B
:101EE00041677D1723AAE176614723A2E17483A7A6
:101EF0004177FD371B87070023AAE17683A7417747
:101F0000639907621307D00223A2E1741DA5B707E6
:101F1000000803B787008567BA9783A747818127A1
:101F2000C18B812781CB41677D1723AAE176654765
:101F300023A2E17483A74177FD371B87070023AAFB
:101F4000E17683A741776398075E1307C00223A257
:101F5000E174D5A3B707000803B70701C167BA97B3
:101F60009C5F8127858B81273E8785476311F72AF0
:101F7000232604FC232804FCBDA42945EF307073FC
:101F8000B707000803B787008567BA97032704FDE2
:101F900023A4E7802945EF30D071B707000803B7C5
:101FA00087008567BA9783A74786812793F7F70F3E
:101FB00081272320F4F8B707000803B78700856757
:101FC000BA9783A7478681279BD78700812793F7F6
:101FD000F70F81272322F4F8B707000803B787001B
:101FE0008567BA9783A7478681279BD707018127F3
:101FF00093F7F70F81272324F4F8B707000803B7F6
:1020000087008567BA9783A7478681279BD7870173
:10201000812793F7F70F81272326F4F8B7070008E5
:1020200003B787008567BA9783A78786812793F7C9
:10203000F70F81272328F4F8B707000803B78700B4
:102040008567BA9783A7878681279BD787008127D3
:1020500093F7F70F8127232AF4F8B707000803B78F
:1020600087008567BA9783A7878681279BD7070153
:10207000812793F7F70F8127232CF4F8B70700087F
:1020800003B787008567BA9783A7878681279BD781
:102090008701812793F7F70F8127232EF4F8232454
:1020A00004FC232204FC232004FC232E04FA9DA01C
:1020B0008367C4FB8A07130704FFBA9783A707F94E
:1020C0003E87914763E7E700832784FC8527232425
:1020D000F4FC8367C4FB8A07130704FFBA9703A7BE
:1020E00007F9832744FC812763E7E700832704FC83
:1020F00085272320F4FC8367C4FB8A07130704FFAA
:10210000BA9783A707F92322F4FC8327C4FB85270A
:10211000232EF4FA8327C4FB1B8707009D47E3F9AE
:10212000E7F8032704F88327C4F963E7E700832768
:1021300004FC85272320F4FC832784FC1B870700ED
:10214000894763F8E7008327C4FC93E71700232639
:10215000F4FC832704FC1B870700894763F8E7002A
:102160008327C4FC93E717002326F4FCB707000875
:1021700003B787008567BA9783A7C7811B870700C6
:102180008327C4FCD98F2326F4FC2945EF307052F5
:10219000B707000803B787008567BA9783A7478307
:1021A00081273E87A1476308F7008327C4FC93E794
:1021B00017002326F4FCB707000803B787008567DC
:1021C000BA9783A7C78481273E87914763E8E700D2
:1021D0008327C4FC93E717002326F4FC832704FD20
:1021E00085272328F4FC832704FD1B8707009147DC
:1021F000E3F5E7D88327C4FC812789E7694723A251
:10220000E1741DAE1307B00223A2E17435A61307D3
:10221000A00223A2E1740DA6B707000883B78700C8
:1022200009671307A702D8C303B781868967138696
:10223000A702B7C722209385079D3A85EF207044F7
:10224000EF20301F83B781863E85EF30204F03B7E4
:1022500081860146B7C722209385879E3A85EF2065
:1022600050426D4723A2E174C1ACEF00C02DAA8794
:10227000A301F4FA83A74175C9E7832744FB1B87B1
:1022800007009147631BF704B707000883B787006F
:10229000314723A8E776A30D04FA19A88347B4FBB6
:1022A0003E85EF00E0528347B4FB8527A30DF4FA87
:1022B0000347B4FB834734FA1377F70F93F7F70F0D
:1022C000E36EF7FC834734FA3E85EF008072AA87FD
:1022D0001B87070023AAE17419A8834734FA3E85B7
:1022E000EF002071AA871B87070023AAE17483A748
:1022F000417581CB83A7817385271B87070023AC9A
:10230000E17283A7417585E703B78186B717000897
:10231000938787FD9C4F3E86B7C72220938507A2EF
:102320003A85EF201036754723A2E17431A423AA21
:102330000174714723A2E17401A4130600088145CA
:10234000B7170008138587FDEFE00F8D83A7017590
:1023500085271B87070023A8E17483A701753E87A3
:10236000A14763F9E70023A801741307300323A2F0
:10237000E174D9A2B707000883B6070103A7017566
:10238000C167B69798C703B7818683A701753E8654
:10239000B7C72220938587A33A85EF20902E6D47FB
:1023A00023A2E17451AA794723A2E17471A203B771
:1023B000818683A741753E86B7C72220938507A5EE
:1023C0003A85EF20102C83A7417589E77D4723A22A
:1023D000E1749DA21307600323A2E174B1AA83A74D
:1023E000417591E71307000223A2E174B1A20547EA
:1023F00023A2E17491A21306F003B70502009547EA
:1024000013952702EF300020AA871B87070023AA15
:10241000E17483A7417591E71307100223A2E174C9
:1024200021AA1307200323A2E17439A283A74175CF
:1024300091E71307200223A2E174FDA8054723A218
:10244000E174DDA883A7417591E71307300223A249
:10245000E174DDA0054723A2E174F9A883A74175C3
:1024600091E71307400223A2E174F9A0054723A2D4
:10247000E174D9A083A7417591E71307500223A205
:10248000E1745DA8054723A2E1747DA083A741758F
:1024900091E71307600223A2E17479A8054723A2FC
:1024A000E17459A81307700223A2E17471A0130705
:1024B000800223A2E17449A083B781863E85EF3074
:1024C000E02703B7818683A741743E86B7C72220E1
:1024D000938507A73A85EF20D01A03B78186014676
:1024E000B7C72220938507A93A85EF20901983A7C3
:1024F000817399C78327C4FE93E727002326F4FE40
:102500008327C4FE93E717002326F4FE13079002E7
:1025100023A2E17415A0010005A0010031A801006B
:1025200021A8010011A8010001A8010031A00100AB
:1025300021A0010011A001008327C4FE3E85E670A2
:10254000467409618280011122EC00109147A307B3
:10255000F4FE8347F4FE8527A307F4FE8347F4FEC9
:102560003E85626405618280797106F422F000186C
:10257000AA87232EF4FC89472326F4FE8327C4FE72
:102580001B8707008947631BF700B707000883B75D
:10259000870009671307A702D8C309A8B70700086F
:1025A00083B7870009671307A702D8C3130540063E
:1025B000EF303010B707000883B787000327C4FD4A
:1025C00023A2E7180100A270027445618280011104
:1025D00022EC0010AA872326F4FE8327C4FE1B8763
:1025E0000700914763EDE7008367C4FE1397270058
:1025F000B7C72220938787BABA979C438287B707C9
:10260000000883B7870023A607005DA8B707000866
:1026100083B78700114723A4E758B707000883B79B
:10262000870023A6070069A8B707000883B78700BB
:10263000094723A4E73AB707000883B7870009478B
:1026400023A6E73AB707000883B78700114723A4FA
:10265000E758B707000883B7870023A607008DA0B7
:10266000B707000883B78700094723A4E73AB707ED
:10267000000883B78700094723A6E73AB707000891
:1026800083B78700114723A4E758B707000883B72B
:10269000870023A607002DA0B707000883B787008F
:1026A000114723A4E758B707000883B787002967B5
:1026B000D8C7B707000883B7870023AC07680100B5
:1026C000B707000883B78700094723A6E746B7077F
:1026D000000883B7870023A60772B707000883B7EF
:1026E0008700094723A2E738B707000883B78700A8
:1026F000094723A4E738B707000883B787000947CD
:1027000023A6E738B707000883B78700094723A83F
:10271000E738B707000883B78700054723A6E744D3
:10272000B707000883B7870023A807440100626445
:1027300005618280411106E422E00008B707000825
:1027400083B7870023A20700B707000883B7870075
:1027500023A20718B707000883B78700054723A0FF
:10276000E730B707000883B78700054723A0E7389D
:10277000B707000883B78700054723A0E740B707DE
:10278000000883B787001D4723AEE756B707000848
:1027900083B787001D4723A0E758B707000883B712
:1027A00087001D4723A2E758B707000883B78700B3
:1027B0001D4723A4E758B707000883B7870023A65F
:1027C0000700EF3070290100A2600264410182809D
:1027D000011122EC0010AA87A307F4FE8347F4FE40
:1027E00013F7F70F8D4763EBE700B707000803B750
:1027F00087008567BA9723AE07863DA0B707000814
:1028000003B787008567BA9783A707881B870700E8
:10281000B707000883B68700BA87C19B1B870700EC
:102820008567B69723A0E788B707000803B7870036
:102830008567BA971D4723A6E78CB707000803B73B
:1028400087008567BA971307100223ACE786834792
:10285000F4FE13F7F70F8D4763E8E7028347F4FEB2
:1028600081279B9737001B870700B707000883B6AF
:1028700087009307F00FBB97E7001B87070085676A
:10288000B69723A6E78805A8B707000803B787000F
:102890008567BA9783A707891B870700B7070008D2
:1028A00083B68700BA8793E7F7001B870700856721
:1028B000B69723A8E788B707000803B7870085679E
:1028C000BA9723A607888347F4FE13F7F70F8D47BF
:1028D00063EBE700B707000803B787008567BA977F
:1028E00023A607883DA0B707000803B787008567C0
:1028F000BA9783A707891B870700B707000883B625
:102900008700BA87C19B1B8707008567B69723A8F6
:10291000E788B707000803B787008567BA9721479C
:1029200023ACE7860100626405618280797122F43C
:102930000018AA87A30FF4FC232404FE230704FE37
:10294000B7170008938787FD23AC0700A30704FE91
:10295000A9A88347F4FE812737170008130787FDCE
:102960008A07BA97DC432324F4FEB717000893873D
:1029700087FD984F8347E4FE8127BE86832784FE28
:10298000BB97D7008127D98F1B870700B71700088F
:10299000938787FD98CF8347E4FE91272307F4FEB2
:1029A0008347F4FE8527A307F4FE0347F4FE83471D
:1029B000F4FD1377F70F93F7F70FE36CF7F8B7070A
:1029C000000803B787008567BA97214723ACE786DD
:1029D000B707000883B68700B7170008938787FDFD
:1029E000984F8567B69723AEE78A01002274456148
:1029F0008280397106FC22F88000AA87A307F4FCC4
:102A0000230704FE8567233CF4FCA147232AF4FC3A
:102A1000B7170008938787FD23A00700B7070008B2
:102A200003B787008567BA97214723ACE78623243D
:102A300004FE51A2B707000803B787008567BA975D
:102A4000032784FE23AEE78AA30704FE25AA834753
:102A5000F4FE81273E878547BB97E7008127A309BE
:102A6000F4FC032744FD834734FD3A86833584FD17
:102A70003E85EF00C017AA872307F4FE032744FD15
:102A8000834734FD3A86833584FD3E85EF0020166A
:102A9000AA872307F4FE032744FD834734FD3A86C3
:102AA000833584FD3E85EF008014AA873E878347E7
:102AB000E4FED98F2307F4FE8347E4FE93F7F70F74
:102AC000CDEFB7170008938787FD98438347F4FE3F
:102AD0008127BE868547BB97D7008127F98F81273D
:102AE000A1E78347F4FE8127032784FE3D8B01275E
:102AF000B7160008938686FD8A07B697D8C3B7171E
:102B00000008938787FD98438347F4FE8127BE869C
:102B10008547BB97D7008127D98F1B870700B71739
:102B20000008938787FD98C3232204FE0DA8B717DA
:102B30000008938787FD9443832744FE0547BB170E
:102B4000F70081273687F98F812789E78547230793
:102B5000F4FE39A8832744FE85272322F4FE834709
:102B6000F4FC1B870700832744FE8127E3E1E7FC91
:102B70008347E4FE93F7F70F8DC38347F4FE852761
:102B8000A307F4FE0347F4FE8347F4FC1377F70F23
:102B900093F7F70FE36DF7EA11A001008347E4FE16
:102BA00093F7F70F9DC3032784FEC5679B87171113
:102BB000B99F2324F4FE832784FE1B870700B707F1
:102BC0001000F917E3F8E7E611A001008347E4FEDF
:102BD00093F7F70F91E78347F4FC3E85EFF01FD59D
:102BE0008347E4FE3E85E270427421618280797100
:102BF00022F40018AA872338B4FC3287A30FF4FC10
:102C0000BA87232CF4FCB707000803B707019167C4
:102C1000BA9723A4074083A7817785271B870700DE
:102C200023ACE17683A781773E878D4763F5E70084
:102C3000094723ACE176B707000883B6070103A76D
:102C400081779167B69723AAE740B707000803B7D3
:102C500007019167BA9723AC0740B707000803B78D
:102C600007019167BA9723A00742B707000883B608
:102C70000701833704FD1B8707009167B69723AAD6
:102C8000E74A833704FD13D70702B707000883B666
:102C9000070101279167B69723ACE74AB7070008F9
:102CA00003B707019167BA97032784FD23A0E74282
:102CB000B707000803B707019167BA977D5723AE9E
:102CC000E74AB707000803B707019167BA977D572E
:102CD00023A0E74CB707000803B707019167BA972D
:102CE0007D5723A2E74CB707000803B70701916798
:102CF000BA977D5723A4E74CB707000803B707012D
:102D00009167BA977D5723A6E74C8347F4FD812747
:102D1000858B8127EDC3B707000803B707019167CB
:102D2000BA9783A7C74B1B870700B707000883B66E
:102D30000701BA8793F707F01B8707009167B697DB
:102D400023AEE74AB707000803B707019167BA97B0
:102D500083A7074C1B870700B707000883B6070146
:102D6000FD77BD07F98F1B8707009167B69723A0F2
:102D7000E74CB707000803B707019167BA9783A725
:102D8000474C1B870700B707000883B60701C177C8
:102D90009387F70FF98F1B8707009167B69723A2D8
:102DA000E74CB707000803B707019167BA9783A7F5
:102DB000874C1B870700B707000883B60701B717C2
:102DC000F0FFFD17F98F1B8707009167B69723A4C3
:102DD000E74CB707000803B70701B707000883B639
:102DE00007019167BA9783A7C74C1B8707009167B4
:102DF000B69723A6E74C8347F4FD8127898B81276B
:102E0000FDC3B707000803B707019167BA9783A707
:102E1000C74B1B870700B707000883B60701C177B8
:102E20009387F70FF98F1B8707009167B69723AE3B
:102E3000E74AB707000803B707019167BA9783A766
:102E4000074C1B870700B707000883B60701B717B1
:102E5000F0FFFD17F98F1B8707009167B69723A036
:102E6000E74CB707000803B707019167BA9783A734
:102E7000474C1B870700B707000883B60701B70751
:102E800001FFFD17F98F1B8707009167B69723A2F3
:102E9000E74CB707000803B707019167BA9783A704
:102EA000874C1B870700B707000883B60701B707E1
:102EB00010F0FD17F98F1B8707009167B69723A4C1
:102EC000E74CB707000803B70701B707000883B648
:102ED00007019167BA9783A7C74C1B8707009167C3
:102EE000B69723A6E74C8347F4FD8127918B812772
:102EF000FDC7B707000803B707019167BA9783A713
:102F0000C74B1B870700B707000883B60701B70741
:102F100001FFFD17F98F1B8707009167B69723AE56
:102F2000E74AB707000803B707019167BA9783A775
:102F3000074C1B870700B707000883B60701B707D0
:102F400010F0FD17F98F1B8707009167B69723A034
:102F5000E74CB707000803B707019167BA9783A743
:102F6000474C1B870700B707000883B60701B70760
:102F70000001FD17F98F1B8707009167B69723A201
:102F8000E74CB707000803B707019167BA9783A713
:102F9000874C1B870700B707000883B60701B707F0
:102FA0000010FD17F98F1B8707009167B69723A4C0
:102FB000E74CB707000803B707019167BA9783A7E3
:102FC000C74C1B870700B707000883B60701BA87FD
:102FD000C19B1B8707009167B69723A6E74C8347E1
:102FE000F4FD8127A18B8127EDC7B707000803B740
:102FF00007019167BA9783A7C74B1B870700B707DD
:10300000000883B60701B7070001FD17F98F1B877A
:1030100007009167B69723AEE74AB707000803B7E2
:1030200007019167BA9783A7074C1B870700B7076B
:10303000000883B60701B7070010FD17F98F1B873B
:1030400007009167B69723A0E74CB707000803B7BE
:1030500007019167BA9783A7474C1B870700B707FB
:10306000000883B60701BA87C19B1B8707009167D9
:10307000B69723A2E74CB707000803B7070191678B
:10308000BA9783A7874C1B870700B707000883B64A
:103090000701BA8793F707F01B8707009167B69778
:1030A00023A4E74CB707000803B707019167BA9755
:1030B00083A7C74C1B870700B707000883B6070123
:1030C000FD77BD07F98F1B8707009167B69723A689
:1030D000E74C8347F4FD8127C18B8127F9CFB707E0
:1030E000000803B70701B707000883B60701916717
:1030F000BA9783A7C74B1B8707009167B69723AE84
:10310000E74AB707000803B707019167BA9783A793
:10311000074C1B870700B707000883B60701BA876B
:10312000C19B1B8707009167B69723A0E74CB707A1
:10313000000803B707019167BA9783A7474C1B871D
:103140000700B707000883B60701BA8793F7F7F0BF
:103150001B8707009167B69723A2E74CB7070008C3
:1031600003B707019167BA9783A7874C1B870700AE
:10317000B707000883B60701FD779387F70FF98F2C
:103180001B8707009167B69723A4E74CB707000891
:1031900003B707019167BA9783A7C74C1B8707003E
:1031A000B707000883B60701C577FD17F98F1B879E
:1031B00007009167B69723A6E74CB707000803B747
:1031C00007019167BA9723A00740B707000803B724
:1031D00007019167BA9723A20740B707000803B712
:1031E00007019167BA97054723A2E740232604FE0B
:1031F00015A08327C4FE8127852781272326F4FE77
:103200008327C4FE81273E879307F00F63F4E7000E
:1032100085471DA8B707000803B707019167BA974C
:1032200083A787428127858B8127E1D7B7070008CD
:1032300003B707019167BA9783A74742812793F79E
:10324000F70F858B93F7F70F3E85227445618280D7
:10325000411122E40008B707000803B70701896796
:10326000BA9723A00740B707000803B7070189678B
:10327000BA9723A20740B707000803B70701896779
:10328000BA9723A40740B707000803B70701896767
:10329000BA97114723A6E740B707000803B707010D
:1032A0008967BA97294723A8E740B707000803B7FB
:1032B00007018967BA9723AA0740B707000803B731
:1032C00007018967BA9723AC0740B707000803B71F
:1032D00007018967BA9723AE0740B707000803B70D
:1032E00007018967BA9723A00742B707000803B709
:1032F00007018967BA9723A20742B707000803B7F7
:1033000007018967BA9723A40742B707000803B7E4
:1033100007018967BA9723A60742B707000803B7D2
:1033200007018967BA9723A80742B707000803B7C0
:1033300007018967BA9723AA0742B707000803B7AE
:1033400007018D67BA971307001423A0E780B7071A
:10335000000803B707018D67BA971307000A23A275
:10336000E780B707000803B707018D67BA9723A462
:103370000780B707000803B707018D67BA9723A630
:103380000780B707000803B707018D67BA9723A81E
:103390000780B707000803B707018D67BA9723AA0C
:1033A0000780B707000803B707018D67BA9723ACFA
:1033B0000780B707000803B707018D67BA9723AEE8
:1033C0000780B707000803B707018D67BA9723A0E6
:1033D0000782B707000803B707018D67BA9705474B
:1033E00023A2E782B707000803B707018D67BA97E2
:1033F000314723A4E782B707000803B707018D67A9
:10340000BA97314723A6E782B707000803B7070139
:103410008D67BA9723A80782B707000803B707018B
:103420009167BA9723A007C0B707000803B7070141
:103430009167BA9723A207C0B707000803B707012F
:103440009167BA9723A407C0B707000803B707011D
:103450009167BA9723A607C0B707000803B707010B
:103460009167BA9723A807C0B707000803B70701F9
:103470009167BA9723AA07C0B707000803B70701E7
:103480009167BA9723AC07C0B707000803B70701D5
:103490009167BA9723AE07C0B707000803B70701C3
:1034A0009167BA9723A007C2B707000803B70701BF
:1034B0009167BA9723A207C2B707000803B70701AD
:1034C0009167BA9723A407C2B707000803B707019B
:1034D0009167BA9723A607C2B707000803B7070189
:1034E0009167BA9723A807C2B707000803B7070177
:1034F0009167BA97054723AAE7C2B707000803B741
:1035000007019167BA9723AC07C2B707000803B752
:1035100007019167BA9723AE07C2B707000803B740
:1035200007019167BA9723A007C4B707000803B73C
:1035300007019167BA9723A207C4B707000803B72A
:1035400007019167BA9723A407C4B707000803B718
:1035500007019167BA9723A607C4B707000803B706
:1035600007019167BA9723A807C4B707000803B7F4
:1035700007019167BA97054723AAE7C4B707000870
:1035800003B707019167BA9723AC07C4B7070008D0
:1035900003B707019167BA9723AE07C4B7070008BE
:1035A00003B707019167BA9723A007C6B7070008BA
:1035B00003B707019167BA97114723A2E7C6B70778
:1035C000000803B707019167BA97154723A4E7C618
:1035D000B707000803B707019167BA9723A607C684
:1035E000B707000803B707019167BA97054723A8F3
:1035F000E7C6B707000803B707019167BA9779478D
:1036000023AAE7C6B707000803B707019167BA976F
:10361000114723ACE7C6B707000803B70701916756
:10362000BA97154723AEE7C6B707000803B70701E7
:103630009167BA970D4723A0E7C8B707000803B7FB
:1036400007019167BA97194723A2E7C8B70700088F
:1036500003B707019167BA97214723A4E7C8B707C3
:10366000000803B707019167BA972D4723A6E7C85B
:10367000B707000803B707019167BA97454723A822
:10368000E7C8B707000803B707019167BA971307A0
:10369000801123AAE7C8B707000803B7070191679D
:1036A000BA9723AC07C8B707000803B707019167AB
:1036B000BA9723AE07C8B707000803B70701916799
:1036C000BA9723A207CCB707000803B70701916791
:1036D000BA97372788811307178823A0E7CEB70743
:1036E000000803B707019167BA9725671307878119
:1036F00023A2E7CEB707000803B707019167BA977F
:1037000037972AA91307972A23A4E7CEB7070008FB
:1037100003B707019167BA970D67130727A923A677
:10372000E7CEB707000803B707019167BA973737A5
:103730008CC21307278C23A8E7CEB707000803B76E
:1037400007019167BA972567130787C223AAE7CEB7
:10375000B707000803B707019167BA9737A72EEAA2
:103760001307A72E23ACE7CEB707000803B707015E
:103770009167BA970D67130727EA23AEE7CEB7071D
:10378000000803B707019167BA97374790031307FB
:10379000379023A0E7D0B707000803B70701916768
:1037A000BA9725671307970323A2E7D0B707000846
:1037B00003B707019167BA9737B7322B1307B732B0
:1037C00023A4E7D0B707000803B707019167BA97AA
:1037D0000D671307372B23A6E7D0B707000803B7F9
:1037E00007019167BA97375794441307479423A862
:1037F000E7D0B707000803B707019167BA972567B5
:103800001307974423AAE7D0B707000803B70701B7
:103810009167BA9737C7366C1307C73623ACE7D022
:10382000B707000803B707019167BA970D67130739
:10383000376C23AEE7D0B707000803B707019167DD
:10384000BA97376798851307579823A0E7D2B70729
:10385000000803B707019167BA972967130797858F
:1038600023A2E7D2B707000803B707019167BA9709
:1038700037D73AAD1307D73A23A4E7D2B7070008E2
:1038800003B707019167BA971167130737AD23A6EE
:10389000E7D2B707000803B707019167BA973777F0
:1038A0009CC61307679C23A8E7D2B707000803B795
:1038B00007019167BA972967130797C623AAE7D22A
:1038C000B707000803B707019167BA9737E73EEEDD
:1038D0001307E73E23ACE7D2B707000803B7070199
:1038E0009167BA971167130737EE23AEE7D2B70790
:1038F000000803B707019167BA973787A007130736
:1039000077A023A0E7D4B707000803B707019167A2
:10391000BA9729671307A70723A2E7D4B7070008B8
:1039200003B707019167BA9737F7422F1307F7429A
:1039300023A4E7D4B707000803B707019167BA9734
:1039400011671307472F23A6E7D4B707000803B76B
:1039500007019167BA973797A448130787A423A84C
:10396000E7D4B707000803B707019167BA9729673B
:103970001307A74823AAE7D4B707000803B707012E
:103980009167BA97370747701307074723ACE7D407
:10399000B707000803B707019167BA9711671307C4
:1039A000477023AEE7D4B707000803B70701916754
:1039B000BA9723A007D6B707000803B70701916796
:1039C000BA9723A207D6B707000803B70701916784
:1039D000BA9723A407D6B707000803B70701916772
:1039E000BA9723A607D6B707000803B70701916760
:1039F000BA9723A807D6B707000803B7070191674E
:103A0000BA9723AA07D6B707000803B7070191673B
:103A1000BA9723AC07D8B707000803B70701916727
:103A2000BA97054798C3B707000803B7070191671E
:103A3000BA9723A40700B707000803B707019167E7
:103A4000BA9723A60700B707000803B707019167D5
:103A5000BA9723A80700B707000803B707019167C3
:103A6000BA9723AA0700B707000803B707019167B1
:103A7000BA9723AC0700B707000803B7070191679F
:103A8000BA9723AE0700B707000803B7070191678D
:103A9000BA9723A00702B707000803B70701916789
:103AA000BA9723A20702B707000803B70701916777
:103AB000BA9723A40702B707000803B70701916765
:103AC000BA9723A60702B707000803B70701916753
:103AD000BA9723AA0702B707000803B7070191673F
:103AE000BA9723AC0702B707000803B7070191672D
:103AF000BA970547B8C3B707000803B7070191672E
:103B0000BA977147F8C3B707000803B70701916771
:103B1000BA973147B8C7B707000803B707019167DD
:103B2000BA971D47F8C7B707000803B707019167A1
:103B3000BA973147B8CBB707000803B707019167B9
:103B4000BA9713077002F8CBB707000803B707014D
:103B50009167BA975147B8CFB707000803B7070175
:103B60009167BA9713076007F8CFB707000803B744
:103B700007019167BA971947B8D3B707000803B789
:103B800007019167BA973147F8D3B707000803B721
:103B900007019167BA972147B8D7B707000803B75D
:103BA00007019167BA9723A80706B707000803B76C
:103BB00007019167BA970D47F8DBB707000803B70D
:103BC00007019167BA9713074002B8DFB7070008EB
:103BD00003B707019167BA97314723A0E708B707F2
:103BE000000803B707019167BA97094723A4E708BC
:103BF000B707000803B707019167BA97094723A6DB
:103C0000E708B707000803B707019167BA970947A4
:103C100023A8E708B707000803B707019167BA9719
:103C2000054723AAE708B707000803B7070191670C
:103C3000BA97114723ACE708B707000803B7070195
:103C40009167BA97094723AEE708B707000803B79B
:103C500007019167BA97094723A0E70AB707000849
:103C600003B707019167BA97054723A2E70AB70789
:103C7000000803B707019167BA971D4723A4E70A15
:103C8000B707000803B707019167BA97414723A612
:103C9000E70AB707000803B707019167BA9723A897
:103CA000070AB707000803B707019167BA9723AA65
:103CB000070AB707000803B707019167BA9723AC53
:103CC000070AB707000803B707019167BA971D47AE
:103CD00023A2E70CB707000803B707019167BA975B
:103CE00023A4070CB707000803B707019167BA9729
:103CF00009671307078623A6E70CB707000803B771
:103D000007019167BA97377702001307071023A8B6
:103D1000E70CB707000803B707019167BA9729476F
:103D200023AAE70CB707000803B707019167BA9702
:103D30003D4723ACE70CB707000803B707019167BD
:103D4000BA97114723AEE70CB707000803B707017E
:103D50009167BA9723A0070EB707000803B70701BA
:103D60009167BA9723A2070EB707000803B70701A8
:103D70009167BA9723A4070EB707000803B7070196
:103D80009167BA9723A6070EB707000803B7070184
:103D90009167BA9723A8070EB707000803B7070172
:103DA0009167BA9723AA070EB707000803B7070160
:103DB0009167BA9723AC070EB707000803B707014E
:103DC0009167BA9723AE070EB707000803B707013C
:103DD0009167BA97054723A0E712B707000803B712
:103DE00007019167BA9723A20712B707000803B724
:103DF00007019167BA9723A40712B707000803B712
:103E000007019167BA9723A60712B707000803B7FF
:103E100007019167BA9723A80712B707000803B7ED
:103E200007019167BA9723AA0712B707000803B7DB
:103E300007019167BA9723AC0712B707000803B7C9
:103E400007019167BA9723AE0712B707000803B7B7
:103E500007019167BA9723A00716B707000803B7B1
:103E600007019167BA9723A20716B707000803B79F
:103E700007019167BA9723A40716B707000803B78D
:103E800007019167BA9723A60716B707000803B77B
:103E900007019167BA9723AC0716B707000803B765
:103EA00007019167BA9723AE0716B707000803B753
:103EB00007019167BA97054723A0E718B7070008DD
:103EC00003B707019167BA9723A20718B70700083D
:103ED00003B707019167BA97614723A4E718B707AB
:103EE000000803B707019167BA971307001223A6CA
:103EF000E718B707000803B707019167BA971307D8
:103F0000002023A8E718B707000803B70701916747
:103F1000BA971307001223AAE718B707000803B7D8
:103F200007019167BA9723AC0718B707000803B7D2
:103F300007019167BA972D4723AEE718B707000826
:103F400003B707019167BA9723A0071AB7070008BC
:103F500003B707019167BA9723A2071AB7070008AA
:103F600003B707019167BA9723A4071AB707000898
:103F700003B707019167BA970D4723A6E71AB7075A
:103F8000000803B707019167BA9723A8071AB70774
:103F9000000803B707019167BA9723AA071AB70762
:103FA000000803B707019167BA9723AC071AB70750
:103FB000000803B707019167BA97054723AEE71AD0
:103FC000B707000803B707019167BA973777020070
:103FD0001307071023A0E71CB707000803B7070162
:103FE0009167BA9723A2071CB707000803B7070118
:103FF0009167BA971307000823A4E71CB7070008C6
:1040000003B707019167BA9723A6071CB7070008F3
:1040100003B707019167BA97054723A8E71CB707BD
:10402000000803B707019167BA9723AA071CB707CF
:10403000000803B707019167BA9723AE071CB707BB
:10404000000803B707019167BA9723A0071EB707B7
:10405000000803B707019167BA9723A2071EB707A5
:10406000000803B707019167BA9723A4071EB70793
:10407000000803B707019167BA9723A6071EB70781
:10408000000803B707019167BA9723A8071EB7076F
:10409000000803B707019167BA9723AA071EB7075D
:1040A000000803B707019167BA9723AC071EB7074B
:1040B000000803B707019167BA9723AE071EB70739
:1040C000000803B707019167BA9723A00720B70735
:1040D000000803B707019167BA970D671307079B9D
:1040E00023A2E720B707000803B707019167BA9733
:1040F0001307004023A4E720B707000803B7070110
:104100009167BA971307002023A6E720B707000896
:1041100003B707019167BA971307000823A8E720A0
:10412000B707000803B707019167BA972D4723AA7D
:10413000E720B707000803B707019167BA97094757
:1041400023ACE720B707000803B707019167BA97C8
:10415000414723AEE720B707000803B7070191677F
:10416000BA9723A00722B707000803B70701916792
:10417000BA97254723A2E722B707000803B707012C
:104180009167BA97314723A4E722B707000803B71E
:1041900007019167BA9723A60722B707000803B75C
:1041A00007019167BA97054723A8E722B7070008D8
:1041B00003B707019167BA9723AA0722B707000838
:1041C00003B707019167BA9723AE0722B707000824
:1041D00003B707019167BA9723A20724B70700081E
:1041E00003B707019167BA9723A40724B70700080C
:1041F00003B707019167BA9723A60724B7070008FA
:1042000003B707019167BA9723AC0724B7070008E3
:1042100003B707019167BA9723AE0724B7070008D1
:1042200003B707019167BA97054723A0E726B707A9
:10423000000803B707019167BA9723A20726B707BB
:10424000000803B707019167BA9723A40726B707A9
:10425000000803B707019167BA9723A60726B70797
:10426000000803B707019167BA9723A80726B70785
:10427000000803B707019167BA9723AA0726B70773
:10428000000803B707019167BA9723AC0726B70761
:10429000000803B707019167BA9723AE0726B7074F
:1042A000000803B707019167BA971307000323A01B
:1042B000E728B707000803B707019167BA9723A259
:1042C0000728B707000803B707019167BA9723A427
:1042D0000728B707000803B707019167BA9723A615
:1042E0000728B707000803B707019167BA9723A00B
:1042F000072AB707000803B707019167BA9723A2F7
:10430000072AB707000803B707019167BA9723A4E4
:10431000072AB707000803B707019167BA9723A6D2
:10432000072AB707000803B707019167BA9723A8C0
:10433000072AB707000803B707019167BA9723AAAE
:10434000072AB707000803B707019167BA9723AE9A
:10435000072AB707000803B707019167BA9723A098
:10436000072CB707000803B707019167BA9723A284
:10437000072CB707000803B707019167BA9723A472
:10438000072CB707000803B707019167BA9723A660
:10439000072CB707000803B707019167BA9723A84E
:1043A000072CB707000803B707019167BA9723AA3C
:1043B000072CB707000803B707019167BA9723AC2A
:1043C000072CB707000803B707019167BA9723AE18
:1043D000072CB707000803B707019167BA9723A016
:1043E000072EB707000803B707019167BA9723A202
:1043F000072EB707000803B707019167BA9723A4F0
:10440000072EB707000803B707019167BA9723A6DD
:10441000072EB707000803B707019167BA9713077C
:10442000006423A8E72EB707000803B707019167C8
:10443000BA9723AA072EB707000803B707019167A9
:10444000BA9723AC072EB707000803B70701916797
:10445000BA9723AE072EB707000803B70701916785
:10446000BA9723A00730B707000803B70701916781
:10447000BA9723A20730B707000803B7070191676F
:10448000BA9723A40730B707000803B7070191675D
:10449000BA9723A60730B707000803B7070191674B
:1044A000BA9723A80730B707000803B70701916739
:1044B000BA97214723AAE730B707000803B70701D7
:1044C0009167BA972D4723ACE730B707000803B7C9
:1044D00007019167BA9723AE0730B707000803B703
:1044E00007019167BA9723A00732B707000803B7FF
:1044F00007019167BA9723A20732B707000803B7ED
:1045000007019167BA9723A40732B707000803B7DA
:1045100007019167BA9723A60732B707000803B7C8
:1045200007019167BA9723A80732B707000803B7B6
:1045300007019167BA97054723A2E738B707000834
:1045400003B707019167BA9723AE073EB707000884
:1045500003B707019567BA9723A007C0B7070008FC
:1045600003B707019567BA9723A207C0B7070008EA
:1045700003B707019567BA9723A407C0B7070008D8
:1045800003B707019567BA9723A607C0B7070008C6
:1045900003B707019567BA9723A807C0B7070008B4
:1045A00003B707019567BA9723AA07C0B7070008A2
:1045B00003B707019567BA9723AC07C0B707000890
:1045C00003B707019567BA9723AE07C0B70700087E
:1045D00003B707019567BA97054798C3B70700085F
:1045E00003B707019567BA970547D8C3B70700080F
:1045F00003B707019567BA9723A40700B707000818
:1046000003B707019567BA970547D8C7B7070008EA
:1046100003B707019567BA971307F00F98CBB70751
:10462000000803B707019567BA9723AC0700B707DF
:10463000000803B707019567BA9723AE0700B707CD
:10464000000803B707019567BA9723A00702B707C9
:10465000000803B707019567BA9723A00740B7077B
:10466000000803B707019567BA97054723A2E740FB
:10467000B707000803B707019967BA97054723A052
:10468000E780B707000803B707019967BA9723A027
:104690000784B707000803B707019967BA9723A2F1
:1046A0000784B707000803B707019967BA9723A4DF
:1046B0000784B707000803B707019967BA9723AEC5
:1046C0000784B707000803B707019967BA9723A0C3
:1046D00007C0B707000803B707019967BA9723A077
:1046E0000740B707000803B707019967BA9723A2E5
:1046F0000740B707000803B707019967BA9723A4D3
:104700000740B707000803B707019967BA9723A6C0
:104710000740B707000803B707019967BA9723A8AE
:104720000740B707000803B707019967BA9723AA9C
:104730000740B707000803B707019967BA9723AC8A
:104740000740B707000803B707019967BA9723A87E
:104750000742B707000803B707019967BA9723AA6A
:104760000742B707000803B707019967BA9723AC58
:104770000742B707000803B707019967BA9723AE46
:104780000742B707000803B707019967BA9723A044
:104790000744B707000803B707019967BA9723A230
:1047A0000744B707000803B707019967BA9723A41E
:1047B0000744B707000803B707019967BA9723A60C
:1047C0000744B707000803B707019967BA9723A8FA
:1047D0000744B707000803B707019967BA9723AAE8
:1047E0000744B707000803B707019967BA9723A6DC
:1047F0000752B707000803B707019967BA9723A8BC
:104800000754B707000803B70701A167BA9723A0A9
:1048100007C0B707000803B70701A167BA9723A22B
:1048200007C0B707000803B70701A167BA9723A617
:104830000700B707000803B70701A167BA9723A8C5
:104840000700B707000803B70701C167BA975147C8
:1048500098C3B707000803B70701C167BA9719479C
:10486000D8C3B707000803B70701C167BA97054760
:1048700098C7B707000803B70701C167BA9705478C
:10488000D8C7B707000803B70701C167BA9723A8BD
:104890000700B707000803B70701C167BA9723AA43
:1048A0000700B707000803B70701C167BA9723AE2F
:1048B0000700B707000803B70701C167BA9723A02D
:1048C0000702B707000803B70701C167BA9723A813
:1048D0000702B707000803B70701C167BA9723AEFD
:1048E0000702B707000803B70701C167BA9723A0FB
:1048F0000704B707000803B70701C167BA9723A2E7
:104900000704B707000803B70701C167BA9723A8D0
:104910000704B707000803B70701CD67BA9723ACB0
:1049200007C0B707000803B70701CD67BA9723AEE2
:1049300007C0B707000803B70701CD67BA9723A0E0
:1049400007C2B707000803B70701CD67BA9723A2CC
:1049500007C2B707000803B70701CD67BA97370743
:1049600000801347F7FF23ACE7F0B707000803B751
:104970000701CD67BA9723AE07F0B707000803B762
:104980000701CD67BA97370700801347F7FF23A0C9
:10499000E7F2B707000803B70701CD67BA9723A26C
:1049A00007F2B707000803B70701CD67BA9723AC32
:1049B0000720B707000803B70701CD67BA9723AEF2
:1049C0000720B707000803B70701CD67BA9723A0F0
:1049D0000722B707000803B70701CD67BA9723A2DC
:1049E0000722B707000803B70701CD67BA9723AAC4
:1049F0000750B707000803B70701CD67BA9723AC84
:104A00000750B707000803B70701CD67BA9723A877
:104A10000768B707000803B70701B7C70300BA97CD
:104A20002167050798C3B707000803B70701B7C791
:104A30000300BA97054798C3B707000803B70701F3
:104A4000B7C70300BA970547D8C3B707000803B72D
:104A50000701B7C70300BA97054798C7B70700080B
:104A600003B70701B7C70300BA9723A60700B70724
:104A7000000803B70701B7C70300BA9723AA0700C6
:104A8000B707000803B70701B7C70300BA9723AEFB
:104A90000700B707000803B70701B7C70300BA97B5
:104AA0001307F00298D3B707000803B70701B7C789
:104AB0000300BA971307F003D8D3B707000803B76A
:104AC0000701B7C70300BA9723A40702B707000876
:104AD00003B70701B7C70300BA9723A60702B707B2
:104AE000000803B70701B7C70300BA9723A8070256
:104AF000B707000803B70701B7C70300BA976147B4
:104B0000D8DBB707000803B70701B7C70300BA9798
:104B100023AC0702B707000803B70701B7C70300B4
:104B2000BA970547D8DFB707000803B70701B7C72B
:104B30000300BA9723A00704B707000803B70701CB
:104B4000B7C70300BA9723A20704010022644101FA
:104B50008280411122E40008B7670020938707D0C4
:104B60002167130707F898C3B7670020938707D01A
:104B70001D67D8C3B7670020938707E02167130735
:104B800007F498C7B7670020938707E01D671307EE
:104B900007C0D8C7B7670020938707E021671307CE
:104BA00007F398CBB7670020938707E01D671307CB
:104BB0000780D8CBB7670020938707D00547D8CFA9
:104BC0000100226441018280797122F40018AA87D1
:104BD000232EF4FCA30704FE8327C4FD1B870700D4
:104BE000914763E1E7048367C4FD13972700B7C7C4
:104BF00022209387C7BBBA979C4382878547A30728
:104C0000F4FE15A08547A307F4FE31A88547A30746
:104C1000F4FE11A88547A307F4FE31A08547A3073A
:104C2000F4FE11A001008347F4FE3E852274456125
:104C30008280411106E422E0000883B68186B7072E
:104C4000000803B70701896793870740BA97394679
:104C5000BE853685EF00003683B68186B70700082B
:104C600003B707018D6793870780BA971306C004BF
:104C7000BE853685EF00003483B68186B70700080D
:104C800003B707019167938707C0BA971306D00649
:104C9000BE853685EF00003283B68186B7070008EF
:104CA00003B707019167BA9713060010BE853685D2
:104CB000EF00403083B68186B707000803B70701CD
:104CC0009567938707C0BA9713069002BE8536850D
:104CD000EF00402E83B68186B707000803B70701AF
:104CE0009567BA972546BE853685EF00A02C83B61A
:104CF0008186B707000803B70701956793870740C8
:104D0000BA970946BE853685EF00C02A83B68186EC
:104D1000B707000803B70701996793870780BA9719
:104D20006D46BE853685EF00E02883B68186B707DD
:104D3000000803B707019967938707C0BA974946E8
:104D4000BE853685EF00002783B68186B707000849
:104D500003B70701996793870740BA971306700551
:104D6000BE853685EF00002583B68186B70700082B
:104D700003B70701A167938707C0BA970946BE85A5
:104D80003685EF00202383B68186B707000803B776
:104D90000701A167BA972146BE853685EF008021BD
:104DA00083B68186B707000803B70701C167BA97C2
:104DB0005946BE853685EF00E01F83B68186B7076A
:104DC000000803B70701CD67938707C0BA9713069A
:104DD000502ABE853685EF00E01D83B68186B70771
:104DE000000803B70701B7C70300BA971306B0025C
:104DF000BE853685EF00001C0100A26002644101FF
:104E00008280411122E4000881473E8522644101ED
:104E10008280797106F422F00018233CA4FCAE874E
:104E2000A30BF4FCB7C72220938707BD98632330F8
:104E3000E4FE9C672334F4FE834774FD9BD7470050
:104E400093F7F70F8127130704FEBA970546BE852F
:104E5000033584FDEF30B019834774FD8127BD8B86
:104E60008127130704FE82178193BA970546BE85F2
:104E7000033584FDEF30B0170100A2700274456164
:104E80008280397106FC22F88000233CA4FC233880
:104E9000B4FCB2872326F4FC833504FD033584FD7E
:104EA000EF303024232604FE25A80327C4FE8147C3
:104EB000999F9B9737008127E12781273E8783278A
:104EC000C4FCBBD7E700812793F7F70FBE850335F6
:104ED00084FDEFF01FF48327C4FE85272326F4FE0C
:104EE0008327C4FE1B8707008D47E3F0E7FC010022
:104EF000E270427421618280397106FC22F88000E0
:104F0000233CA4FC2338B4FC2334C4FC833504FDC7
:104F1000033584FDEF30F01C91472326F4FE1DA8D5
:104F20000327C4FE8147999F9B9737008127E1277C
:104F300081273E87833784FCB3D7E70093F7F70FC9
:104F4000BE85033584FDEFF0DFEC8327C4FE8527A3
:104F50002326F4FE8327C4FE1B8707009D47E3F149
:104F6000E7FC232404FE1DA8032784FE8147999FA4
:104F70009B9737008127E12781273E87833784FC71
:104F8000B3D7E70093F7F70FBE85033584FDEFF045
:104F90005FE8832784FE85272324F4FE832784FE8D
:104FA0001B8707008D47E3F1E7FC0100E2704274C4
:104FB00021618280797106F422F000182334A4FE66
:104FC0002330B4FEB287232EF4FC91A0833704FE75
:104FD0003E86B7C72220938507BE033584FEEFF0D7
:104FE000BFF1833704FE9C433E86B7C722209385DA
:104FF00007BF033584FEEFF0DFE8833704FE910737
:105000002330F4FE8327C4FDFD37232EF4FC8327D1
:10501000C4FD8127C5FF0100A27002744561828032
:105020001D7186ECA2E88010233CA4FAAE87368777
:10503000232AF4FAB287A309F4FABA872326F4FAEA
:10504000232204FC833784FB233CF4FC833784FB5A
:105050002338F4FC833784FB2334F4FC834734FB8C
:105060008127BE86130700046363D70613972700C2
:10507000B7C72220938707E0BA979C4382872330E3
:1050800004FE89A885472330F4FEA9A08547233074
:10509000F4FE833704FE93C7F7FF2330F4FE1DA808
:1050A000EFF03FD6AA872330F4FE2DA0B7C7222009
:1050B00083B707DF2330F4FE31A8B7C7222083B7B8
:1050C00087DF2330F4FE39A0233004FE21A02330F3
:1050D00004FE0100232604FE79AA8327C4FA1B8755
:1050E000070085476302F7048327C4FA812789CB29
:1050F0008327C4FA1B8707008947630DF704BDA8FF
:10510000833704FE93F7F70F2330F4FE833704FE52
:1051100013F7F70F833784FC2380E700833784FC81
:1051200085072334F4FCB5A0033704FEC167FD17DF
:10513000F98F2330F4FE833704FE1397070341935E
:10514000833704FD2390E700833704FD8907233864
:10515000F4FC81A0033704FEFD578193F98F2330BF
:10516000F4FE833704FE1B870700833784FD98C352
:10517000833784FD9107233CF4FC21A8833784FB0B
:10518000033704FE98E3833784FBA107233CF4FA3A
:1051900001000327C4FEB7070001FD17F98F81271F
:1051A00099EB03B781860546B7C72220938507C0D0
:1051B0003A85EF30C063834734FB8127BE861307EF
:1051C00000046364D70A13972700B7C72220938788
:1051D00047F0BA979C438287833704FE85072330C4
:1051E000F4FE69A0033704FE8547FE076316F70047
:1051F00085472330F4FE9DA8833704FE86072330BD
:10520000F4FEADA0833704FE93C7F7FF2330F4FE0E
:10521000033704FE8547FE076316F70085472330F2
:10522000F4FE31A0833704FE86072330F4FE833773
:1052300004FE93C7F7FF2330F4FE0DA8EFF07FBC08
:10524000AA872330F4FE1DA0B7C7222083B707DF4B
:105250002330F4FE21A8B7C7222083B787DF23308D
:10526000F4FE29A0233004FE11A001008327C4FE10
:1052700085272326F4FE0327C4FE832744FB01274A
:105280008127E36CF7E4832744FC3E85E6604664AF
:1052900025618280197186FCA2F80001233CA4F8E4
:1052A000AE873687232AF4F8B287A309F4F8BA87C1
:1052B0002326F4F8232E04FC833784F9233CF4FAE4
:1052C000833784F92338F4FC833784F92334F4FCDE
:1052D000833784F92330F4FC834734F98127BE8671
:1052E000130700046360D70A13972700B7C722206B
:1052F00093878700BA979C438287233004FE71A06E
:1053000085472330F4FE51A085472330F4FE8337D0
:1053100004FE93C7F7FF2330F4FE85A8EFF07FAEBD
:10532000AA872330F4FE833784F9033704FE98E319
:10533000833704FE13F7F70F833704FD2380E7005C
:10534000833704FE139707034193833784FC23902C
:10535000E700833704FE1B870700833704FC98C3EC
:105360002DA0B7C7222083B707DF2330F4FE31A872
:10537000B7C7222083B787DF2330F4FE39A023305C
:1053800004FE21A0233004FE0100834734F913F703
:10539000F70F930740036315F7002945EF007031BD
:1053A000232604FE89A48327C4F81B8707008547AA
:1053B000630BF7028327C4F8812789CB8327C4F8BE
:1053C0001B8707008947630EF70299A8833704FEFD
:1053D00093F7F70F2330F4FE833704FD83C70700EC
:1053E0002330F4FA81A8033704FEC167FD17F98F53
:1053F0002330F4FE833784FC83D707002330F4FA8C
:1054000015A8033704FEFD578193F98F2330F4FE6E
:10541000833704FC9C43821781932330F4FA19A844
:10542000833784F92338F4FA833704FB9C632330F1
:10543000F4FA01000327C4FEB7070001FD17F98F36
:10544000812799EB03B781860546B7C7222093854C
:1054500087C03A85EF30A039833704FA033704FE5A
:105460006307F7008327C4FD8527232EF4FC8337C9
:1054700084F9A107233CF4F8833704FD850723381A
:10548000F4FC833784FC89072334F4FC833704FC61
:1054900091072330F4FC834734F98127BE86130734
:1054A0000004636CD71213972700B7C72220938795
:1054B000C710BA979C438287833704FE8507233041
:1054C000F4FE29AA033704FE8547FE076316F7009A
:1054D00085472330F4FE19A2833704FE8607233064
:1054E000F4FEEDA8833704FE93C7F7FF2330F4FEE4
:1054F000033704FE8547FE076316F7008547233010
:10550000F4FE31A0833704FE86072330F4FE833790
:1055100004FE93C7F7FF2330F4FEC9A0EFF07F8E9F
:10552000AA872330F4FEEFF0DF8DAA8781273E871C
:10553000B7071000F117F98F2326F4FA8367C4FA2E
:105540008E07033784FBBA97233CF4F88367C4FAC9
:105550008E07033784FBBA972338F4FC8367C4FAB9
:105560008E07033784FBBA972334F4FC8367C4FAAD
:105570008E07033784FBBA972330F4FC833784F912
:10558000033704FE98E3833704FE13F7F70F8337DE
:1055900004FD2380E700833704FE1397070341933C
:1055A000833784FC2390E700833704FE1B870700C2
:1055B000833704FC98C31DA0B7C7222083B707DF39
:1055C0002330F4FE21A8B7C7222083B787DF23301A
:1055D000F4FE29A0233004FE11A001008327C4FE9D
:1055E00085272326F4FE0327C4FE832744F90127D9
:1055F0008127E36AF7DA8327C4FD3E85E6704674A7
:1056000009618280797106F422F00018233CA4FC21
:10561000AE873287232AF4FCBA872328F4FC23269A
:1056200004FE232404FEFDA8232204FED9A8832718
:1056300044FE0547BB17F7008127A301F4FE83470B
:1056400034FE1B870700832704FDF98F8127CDC710
:1056500003B78186832744FE3E86B7C72220938501
:1056600007C13A85EFF0FF81034734FE832744FDED
:105670008D463A86BE85033584FDEFF07F9AAA8772
:1056800081270327C4FEB99F2326F4FE034734FE77
:10569000832744FD8D463A86BE85033584FDEFF0B1
:1056A0007FBFAA8781270327C4FEB99F2326F4FE64
:1056B000034734FE832744FD89463A86BE85033579
:1056C00084FDEFF0FF95AA8781270327C4FEB99FC9
:1056D0002326F4FE034734FE832744FD89463A8699
:1056E000BE85033584FDEFF0FFBAAA878127032723
:1056F000C4FEB99F2326F4FE832744FE8527232278
:10570000F4FE832744FE1B8707009947E3F1E7F285
:10571000833784FDA107233CF4FC832784FE85277F
:105720002324F4FE832784FE8127E38F07EE83275B
:10573000C4FE3E85A2700274456182805D7186E47C
:10574000A2E08008233CA4FA232604FEB707000841
:1057500003B787008567BA9783A7478181273E866D
:10576000B7C72220938507C5033584FBEFF06FF19F
:10577000B707000883B7870083A7C720812793F75F
:10578000F70781273E86B7C72220938587C6033552
:1057900084FBEFF00FEFB707000883B7870083A7FC
:1057A000C72081279BD77700812793F7F7078127A9
:1057B0003E86B7C72220938587C7033584FBEFF069
:1057C0004FECB707000803B787008567BA9783A730
:1057D000C78B81273E86B7C72220938587C30335B1
:1057E00084FBEFF00FEAB707000883B7870083A7B1
:1057F0008721812793F7F70381273E86B7C72220A9
:10580000938587C8033584FBEFF0AFE7B70700083F
:1058100083B7870083A7872181279BD767008127CC
:105820003E878567FD17F98F81273E86B7C72220FF
:10583000938507CA033584FBEFF0AFE4B707000890
:1058400083B7870083A7872181279BD727018127DB
:1058500093F7F70381273E86B7C72220938587CB2E
:10586000033584FBEFF0EFE1B707000883B787004B
:1058700083A7872181279BD78701812793F7F70388
:1058800081273E86B7C72220938507CD033584FB49
:10589000EFF02FDFB7C72220938587CE033584FB37
:1058A000EF302004232404FE59ACB707000803B7E7
:1058B00087008567BA97032784FE23A4E780B7078C
:1058C000000803B787008567BA9783A78780812779
:1058D0003E86B7C72220938507D7033584FBEFF0B8
:1058E0004FDA1305803EEF00C05CB707000803B72E
:1058F00087008567BA9783A7C7812326F4FC83278F
:10590000C4FC3E86B7C72220938587D7033584FB26
:10591000EFF02FD70327C4FE8327C4FCD98F23269B
:10592000F4FEB707000803B787008567BA9783A717
:1059300047822326F4FC8327C4FC3E86B7C7222077
:10594000938587D7033584FBEFF0AFD38327C4FC5F
:1059500093F7F70F812781E785472326F4FE032776
:10596000C4FCC167938707F0F98F812781E78547DA
:105970002326F4FE0327C4FCB707FF00F98F812715
:1059800081E785472326F4FE0327C4FCB70700FF01
:10599000F98F812781E785472326F4FEB7070008A2
:1059A00003B787008567BA9783A7878281273E86DA
:1059B000B7C72220938587D7033584FBEFF06FCCE0
:1059C000B707000803B787008567BA9783A7C78220
:1059D00081273E86B7C72220938587D7033584FB6E
:1059E000EFF02FCAB707000803B787008567BA979B
:1059F00083A7078381273E86B7C72220938587D751
:105A0000033584FBEFF0EFC7B707000803B7870043
:105A10008567BA9783A7478381273E86B7C7222029
:105A2000938587D7033584FBEFF0AFC58327C4FC8C
:105A30001B870700A147B307F740B337F00093F780
:105A4000F70F1B8707008327C4FED98F2326F4FE98
:105A5000B707000803B787008567BA9783A7C7838E
:105A600081273E86B7C72220938507D8033584FB5C
:105A7000EFF02FC1B707000803B787008567BA9713
:105A800083A7078481273E86B7C72220938587D7BF
:105A9000033584FBEFF0EFBE8327C4FC93F7F70FC9
:105AA0002322F4FE8327C4FC9BD78700812793F72A
:105AB000F70F2320F4FE8327C4FC9BD7070181271F
:105AC00093F7F70F232EF4FC8327C4FC9BD78701A1
:105AD000232CF4FCB707000803B787008567BA9743
